{
  "contractName": "hi",
  "abi": [
    {
      "constant": true,
      "inputs": [],
      "name": "nice",
      "outputs": [
        {
          "internalType": "string",
          "name": "",
          "type": "string"
        }
      ],
      "payable": false,
      "stateMutability": "pure",
      "type": "function"
    }
  ],
  "bytecode": "0x608060405234801561001057600080fd5b5061011d806100206000396000f3fe6080604052348015600f57600080fd5b506004361060285760003560e01c806392cc410a14602d575b600080fd5b603360ab565b6040518080602001828103825283818151815260200191508051906020019080838360005b8381101560715780820151818401526020810190506058565b50505050905090810190601f168015609d5780820380516001836020036101000a031916815260200191505b509250505060405180910390f35b60606040518060400160405280601181526020017f4e69636520746f206d65657420796f752100000000000000000000000000000081525090509056fea265627a7a723158204f9e45fe0ca10b6de3a0baf90a2267c91f7f7044372d78252484ce019eb93ab164736f6c634300050c0032",
  "source": "pragma solidity >=0.4.0 <=0.6.0;\r\ncontract hi{\r\n    \r\n   \r\n\r\n    function nice() pure public returns(string memory){\r\n        \r\n        return \"Nice to meet you!\";\r\n    }\r\n    \r\n    \r\n}",
  "sourcePath": "C:/Users/k/desktop/dirbtuves/TRUE-fella/contracts/greet.sol",
  "compiler": {
    "name": "solc",
    "version": "0.5.12+commit.7709ece9.Emscripten.clang"
  },
  "schemaVersion": "3.0.19",
  "updatedAt": "2019-12-15T15:20:12.055Z",
  "devdoc": {
    "methods": {}
  },
  "userdoc": {
    "methods": {}
  }
}