{
  "contractName": "Movies",
  "abi": [
    {
      "inputs": [],
      "payable": false,
      "stateMutability": "nonpayable",
      "type": "constructor"
    },
    {
      "constant": true,
      "inputs": [],
      "name": "Sellers_balance",
      "outputs": [
        {
          "internalType": "uint256",
          "name": "",
          "type": "uint256"
        }
      ],
      "payable": false,
      "stateMutability": "view",
      "type": "function"
    },
    {
      "constant": true,
      "inputs": [],
      "name": "balance",
      "outputs": [
        {
          "internalType": "uint256",
          "name": "",
          "type": "uint256"
        }
      ],
      "payable": false,
      "stateMutability": "view",
      "type": "function"
    },
    {
      "constant": true,
      "inputs": [
        {
          "internalType": "address",
          "name": "",
          "type": "address"
        }
      ],
      "name": "consumer",
      "outputs": [
        {
          "internalType": "uint256",
          "name": "",
          "type": "uint256"
        }
      ],
      "payable": false,
      "stateMutability": "view",
      "type": "function"
    },
    {
      "constant": true,
      "inputs": [],
      "name": "courier_balance",
      "outputs": [
        {
          "internalType": "uint256",
          "name": "",
          "type": "uint256"
        }
      ],
      "payable": false,
      "stateMutability": "view",
      "type": "function"
    },
    {
      "constant": true,
      "inputs": [],
      "name": "movies",
      "outputs": [
        {
          "internalType": "uint256",
          "name": "",
          "type": "uint256"
        }
      ],
      "payable": false,
      "stateMutability": "view",
      "type": "function"
    },
    {
      "constant": false,
      "inputs": [
        {
          "internalType": "uint256",
          "name": "amount",
          "type": "uint256"
        }
      ],
      "name": "buyMovies",
      "outputs": [],
      "payable": false,
      "stateMutability": "nonpayable",
      "type": "function"
    },
    {
      "constant": false,
      "inputs": [
        {
          "internalType": "uint256",
          "name": "amount",
          "type": "uint256"
        }
      ],
      "name": "refundMovies",
      "outputs": [],
      "payable": false,
      "stateMutability": "nonpayable",
      "type": "function"
    }
  ],
  "bytecode": "0x608060405273320002b374f326bf28816facc6be61531d0adbef600160006101000a81548173ffffffffffffffffffffffffffffffffffffffff021916908373ffffffffffffffffffffffffffffffffffffffff16021790555073d3ba56e55bb25d76982da869f2c5e9ebb489171b600260006101000a81548173ffffffffffffffffffffffffffffffffffffffff021916908373ffffffffffffffffffffffffffffffffffffffff1602179055503480156100ba57600080fd5b50336000806101000a81548173ffffffffffffffffffffffffffffffffffffffff021916908373ffffffffffffffffffffffffffffffffffffffff16021790555060146005819055503373ffffffffffffffffffffffffffffffffffffffff1631600681905550600160009054906101000a900473ffffffffffffffffffffffffffffffffffffffff1673ffffffffffffffffffffffffffffffffffffffff1631600381905550600260009054906101000a900473ffffffffffffffffffffffffffffffffffffffff1673ffffffffffffffffffffffffffffffffffffffff16316004819055506103d8806101b06000396000f3fe608060405234801561001057600080fd5b506004361061007d5760003560e01c806386b5938b1161005b57806386b5938b146100ec57806394db75d61461010a578063b69ef8a814610138578063de69b6ac146101565761007d565b80635bdafa49146100825780636ab1d6ab146100a05780637b1e63f8146100ce575b600080fd5b61008a6101ae565b6040518082815260200191505060405180910390f35b6100cc600480360360208110156100b657600080fd5b81019080803590602001909291905050506101b4565b005b6100d661028b565b6040518082815260200191505060405180910390f35b6100f4610291565b6040518082815260200191505060405180910390f35b6101366004803603602081101561012057600080fd5b8101908080359060200190929190505050610297565b005b610140610385565b6040518082815260200191505060405180910390f35b6101986004803603602081101561016c57600080fd5b81019080803573ffffffffffffffffffffffffffffffffffffffff16906020019092919050505061038b565b6040518082815260200191505060405180910390f35b60045481565b80600760003373ffffffffffffffffffffffffffffffffffffffff1673ffffffffffffffffffffffffffffffffffffffff16815260200190815260200160002054101561020057600080fd5b6001600460008282540192505081905550670de0b6b3a7640000810260066000828254019250508190555080600760003373ffffffffffffffffffffffffffffffffffffffff1673ffffffffffffffffffffffffffffffffffffffff168152602001908152602001600020600082825403925050819055508060056000828254019250508190555050565b60035481565b60055481565b6000600554116102a657600080fd5b6005548111806102d65750670de0b6b3a764000081023373ffffffffffffffffffffffffffffffffffffffff1631105b156102e057600080fd5b6001600460008282540192505081905550670de0b6b3a7640000810260066000828254039250508190555080600760003373ffffffffffffffffffffffffffffffffffffffff1673ffffffffffffffffffffffffffffffffffffffff1681526020019081526020016000206000828254019250508190555080600560008282540392505081905550670de0b6b3a7640000810260036000828254019250508190555050565b60065481565b6007602052806000526040600020600091509050548156fea265627a7a723158203294030e17036cbd1c8d3ffd6eeea6191115d541a55dd83b6a699fd631a9976e64736f6c634300050c0032",
  "source": "pragma solidity >=0.4.0 <=0.6.0;\r\n\r\n\r\ncontract Movies{\r\n\r\n    address payable owner;\r\n    address seller = 0x320002B374F326BF28816facc6Be61531d0ADbEf;\r\n    address courier =  0xd3BA56E55bb25D76982da869f2c5e9ebB489171B;\r\n    uint public Sellers_balance;\r\n    uint public courier_balance;\r\n    \r\n    uint public movies;\r\n    uint public balance;\r\n\r\n    uint constant price = 1 ether;\r\n    \r\n    mapping(address => uint) public consumer;\r\n    //mapping(address => uint ) public courier;\r\n    \r\n    \r\n\r\n    constructor() public {\r\n        owner = msg.sender;\r\n        movies = 20;\r\n        balance = msg.sender.balance;\r\n        Sellers_balance=seller.balance;\r\n        courier_balance = courier.balance;\r\n    }\r\n    \r\n    \r\n    \r\n    // validation pre-buying;\r\n    modifier preBuy() {\r\n        require(movies > 0);\r\n        _;\r\n    }\r\n    \r\n\r\n    \r\n    function buyMovies(uint amount) public preBuy {\r\n       \r\n        if (amount > movies || msg.sender.balance<(amount * price)) {\r\n            revert();\r\n        }\r\n        \r\n       // owner.transfer(amount * price);\r\n        \r\n        courier_balance +=1;\r\n        \r\n        balance -= (amount * price);\r\n        consumer[msg.sender] += amount;\r\n        movies -= amount;\r\n        Sellers_balance  += (amount * price);\r\n    }\r\n    \r\n    function refundMovies(uint amount) public {\r\n        \r\n        if (consumer[msg.sender] < amount) {\r\n            revert();\r\n        }\r\n        \r\n        courier_balance += 1;\r\n        balance += (amount * price);\r\n        consumer[msg.sender] -= amount;\r\n        movies += amount;\r\n    }\r\n}\r\n",
  "sourcePath": "C:/Users/k/Desktop/dirbtuves/TRUE-fella/contracts/Movies.sol",
  "compiler": {
    "name": "solc",
    "version": "0.5.12+commit.7709ece9.Emscripten.clang"
  },
  "schemaVersion": "3.0.19",
  "updatedAt": "2019-12-19T12:27:05.236Z",
  "networkType": "ethereum",
  "devdoc": {
    "methods": {}
  },
  "userdoc": {
    "methods": {}
  }
}