{
  "contractName": "Movies",
  "abi": [
    {
      "inputs": [],
      "payable": false,
      "stateMutability": "nonpayable",
      "type": "constructor"
    },
    {
      "constant": true,
      "inputs": [],
      "name": "balance",
      "outputs": [
        {
          "internalType": "uint256",
          "name": "",
          "type": "uint256"
        }
      ],
      "payable": false,
      "stateMutability": "view",
      "type": "function"
    },
    {
      "constant": true,
      "inputs": [
        {
          "internalType": "uint256",
          "name": "",
          "type": "uint256"
        }
      ],
      "name": "cashiers",
      "outputs": [
        {
          "internalType": "bytes",
          "name": "name",
          "type": "bytes"
        },
        {
          "internalType": "uint256",
          "name": "badgeId",
          "type": "uint256"
        }
      ],
      "payable": false,
      "stateMutability": "view",
      "type": "function"
    },
    {
      "constant": true,
      "inputs": [
        {
          "internalType": "address",
          "name": "",
          "type": "address"
        }
      ],
      "name": "consumer",
      "outputs": [
        {
          "internalType": "uint256",
          "name": "",
          "type": "uint256"
        }
      ],
      "payable": false,
      "stateMutability": "view",
      "type": "function"
    },
    {
      "constant": true,
      "inputs": [],
      "name": "movies",
      "outputs": [
        {
          "internalType": "uint256",
          "name": "",
          "type": "uint256"
        }
      ],
      "payable": false,
      "stateMutability": "view",
      "type": "function"
    },
    {
      "constant": true,
      "inputs": [],
      "name": "value",
      "outputs": [
        {
          "internalType": "uint256",
          "name": "",
          "type": "uint256"
        }
      ],
      "payable": false,
      "stateMutability": "view",
      "type": "function"
    },
    {
      "constant": false,
      "inputs": [
        {
          "internalType": "uint256",
          "name": "amount",
          "type": "uint256"
        }
      ],
      "name": "buyMovies",
      "outputs": [],
      "payable": false,
      "stateMutability": "nonpayable",
      "type": "function"
    },
    {
      "constant": false,
      "inputs": [
        {
          "internalType": "uint256",
          "name": "amount",
          "type": "uint256"
        }
      ],
      "name": "refundMovies",
      "outputs": [],
      "payable": false,
      "stateMutability": "nonpayable",
      "type": "function"
    }
  ],
  "bytecode": "0x60806040523460055534801561001457600080fd5b50336000806101000a81548173ffffffffffffffffffffffffffffffffffffffff021916908373ffffffffffffffffffffffffffffffffffffffff16021790555060146001819055503373ffffffffffffffffffffffffffffffffffffffff16316002819055506104778061008a6000396000f3fe608060405234801561001057600080fd5b506004361061007d5760003560e01c806394db75d61161005b57806394db75d6146100ec578063b69ef8a81461011a578063bfe62eab14610138578063de69b6ac146101e65761007d565b80633fa4f245146100825780636ab1d6ab146100a057806386b5938b146100ce575b600080fd5b61008a61023e565b6040518082815260200191505060405180910390f35b6100cc600480360360208110156100b657600080fd5b8101908080359060200190929190505050610244565b005b6100d66102ca565b6040518082815260200191505060405180910390f35b6101186004803603602081101561010257600080fd5b81019080803590602001909291905050506102d0565b005b610122610368565b6040518082815260200191505060405180910390f35b6101646004803603602081101561014e57600080fd5b810190808035906020019092919050505061036e565b6040518080602001838152602001828103825284818151815260200191508051906020019080838360005b838110156101aa57808201518184015260208101905061018f565b50505050905090810190601f1680156101d75780820380516001836020036101000a031916815260200191505b50935050505060405180910390f35b610228600480360360208110156101fc57600080fd5b81019080803573ffffffffffffffffffffffffffffffffffffffff16906020019092919050505061042a565b6040518082815260200191505060405180910390f35b60055481565b670de0b6b3a76400008102600554141580610260575060015481115b1561026a57600080fd5b80600360003373ffffffffffffffffffffffffffffffffffffffff1673ffffffffffffffffffffffffffffffffffffffff168152602001908152602001600020600082825403925050819055508060016000828254019250508190555050565b60015481565b6000600154116102df57600080fd5b6001548111156102ee57600080fd5b670de0b6b3a7640000810260026000828254039250508190555080600360003373ffffffffffffffffffffffffffffffffffffffff1673ffffffffffffffffffffffffffffffffffffffff168152602001908152602001600020600082825401925050819055508060016000828254039250508190555050565b60025481565b6004602052806000526040600020600091509050806000018054600181600116156101000203166002900480601f01602080910402602001604051908101604052809291908181526020018280546001816001161561010002031660029004801561041a5780601f106103ef5761010080835404028352916020019161041a565b820191906000526020600020905b8154815290600101906020018083116103fd57829003601f168201915b5050505050908060010154905082565b6003602052806000526040600020600091509050548156fea265627a7a7231582036fe42c5ad95f1b87f8ffadfe91d1daf6962e718328992ac392df8613149236164736f6c634300050c0032",
  "source": "pragma solidity >=0.4.0 <=0.6.0;\r\n\r\n\r\ncontract Movies{\r\n\r\n    address owner;\r\n    uint public movies;\r\n    uint public balance;\r\n    uint constant price = 1 ether;\r\n    mapping(address => uint) public consumer;\r\n    mapping(uint => Cashier) public cashiers;\r\n\r\n    struct Cashier {\r\n        bytes name;\r\n        uint badgeId;\r\n    }\r\n\r\n    constructor() public {\r\n        owner = msg.sender;\r\n        movies = 20;\r\n        balance = msg.sender.balance;\r\n    }\r\n\r\n    // validation pre-buying;\r\n    modifier preBuy() {\r\n        require(movies > 0);\r\n        _;\r\n    }\r\n        \r\n    uint public value = msg.value;\r\n\r\n\r\n    function buyMovies(uint amount) public preBuy {\r\n       \r\n        if (amount > movies) {\r\n            revert();\r\n        }\r\n        \r\n        balance -= (amount * price);\r\n        consumer[msg.sender] += amount;\r\n        movies -= amount;\r\n    }\r\n\r\n    function refundMovies(uint amount) public {\r\n        if (value !=(amount * price) || amount > movies) {\r\n            revert();\r\n        }\r\n\r\n        consumer[msg.sender] -= amount;\r\n        movies += amount;\r\n    }\r\n}\r\n",
  "sourcePath": "C:/Users/k/Desktop/dirbtuves/TRUE-fella/contracts/Movies.sol",
  "compiler": {
    "name": "solc",
    "version": "0.5.12+commit.7709ece9.Emscripten.clang"
  },
  "schemaVersion": "3.0.19",
  "updatedAt": "2019-12-15T20:57:54.037Z",
  "networkType": "ethereum",
  "devdoc": {
    "methods": {}
  },
  "userdoc": {
    "methods": {}
  }
}