{
  "contractName": "Movies",
  "abi": [
    {
      "inputs": [],
      "payable": false,
      "stateMutability": "nonpayable",
      "type": "constructor"
    },
    {
      "anonymous": false,
      "inputs": [
        {
          "indexed": true,
          "internalType": "address",
          "name": "from",
          "type": "address"
        },
        {
          "indexed": false,
          "internalType": "uint256",
          "name": "value",
          "type": "uint256"
        }
      ],
      "name": "Transfer",
      "type": "event"
    },
    {
      "constant": true,
      "inputs": [],
      "name": "balance",
      "outputs": [
        {
          "internalType": "uint256",
          "name": "",
          "type": "uint256"
        }
      ],
      "payable": false,
      "stateMutability": "view",
      "type": "function"
    },
    {
      "constant": true,
      "inputs": [
        {
          "internalType": "uint256",
          "name": "",
          "type": "uint256"
        }
      ],
      "name": "cashiers",
      "outputs": [
        {
          "internalType": "bytes",
          "name": "name",
          "type": "bytes"
        },
        {
          "internalType": "uint256",
          "name": "badgeId",
          "type": "uint256"
        }
      ],
      "payable": false,
      "stateMutability": "view",
      "type": "function"
    },
    {
      "constant": true,
      "inputs": [
        {
          "internalType": "address",
          "name": "",
          "type": "address"
        }
      ],
      "name": "consumer",
      "outputs": [
        {
          "internalType": "uint256",
          "name": "",
          "type": "uint256"
        }
      ],
      "payable": false,
      "stateMutability": "view",
      "type": "function"
    },
    {
      "constant": true,
      "inputs": [],
      "name": "movies",
      "outputs": [
        {
          "internalType": "uint256",
          "name": "",
          "type": "uint256"
        }
      ],
      "payable": false,
      "stateMutability": "view",
      "type": "function"
    },
    {
      "constant": false,
      "inputs": [
        {
          "internalType": "uint256",
          "name": "amount",
          "type": "uint256"
        }
      ],
      "name": "buyMovies",
      "outputs": [],
      "payable": true,
      "stateMutability": "payable",
      "type": "function"
    },
    {
      "constant": false,
      "inputs": [
        {
          "internalType": "uint256",
          "name": "amount",
          "type": "uint256"
        }
      ],
      "name": "refundMovies",
      "outputs": [],
      "payable": false,
      "stateMutability": "nonpayable",
      "type": "function"
    }
  ],
  "bytecode": "0x608060405234801561001057600080fd5b50336000806101000a81548173ffffffffffffffffffffffffffffffffffffffff021916908373ffffffffffffffffffffffffffffffffffffffff16021790555060146001819055503373ffffffffffffffffffffffffffffffffffffffff1631600281905550610525806100866000396000f3fe6080604052600436106100555760003560e01c80636ab1d6ab1461005a57806386b5938b1461009557806394db75d6146100c0578063b69ef8a8146100ee578063bfe62eab14610119578063de69b6ac146101d4575b600080fd5b34801561006657600080fd5b506100936004803603602081101561007d57600080fd5b8101908080359060200190929190505050610239565b005b3480156100a157600080fd5b506100aa6102ff565b6040518082815260200191505060405180910390f35b6100ec600480360360208110156100d657600080fd5b8101908080359060200190929190505050610305565b005b3480156100fa57600080fd5b50610103610416565b6040518082815260200191505060405180910390f35b34801561012557600080fd5b506101526004803603602081101561013c57600080fd5b810190808035906020019092919050505061041c565b6040518080602001838152602001828103825284818151815260200191508051906020019080838360005b8381101561019857808201518184015260208101905061017d565b50505050905090810190601f1680156101c55780820380516001836020036101000a031916815260200191505b50935050505060405180910390f35b3480156101e057600080fd5b50610223600480360360208110156101f757600080fd5b81019080803573ffffffffffffffffffffffffffffffffffffffff1690602001909291905050506104d8565b6040518082815260200191505060405180910390f35b80600360003373ffffffffffffffffffffffffffffffffffffffff1673ffffffffffffffffffffffffffffffffffffffff16815260200190815260200160002054101561028557600080fd5b670de0b6b3a7640000810260026000828254019250508190555080600360003373ffffffffffffffffffffffffffffffffffffffff1673ffffffffffffffffffffffffffffffffffffffff168152602001908152602001600020600082825403925050819055508060016000828254019250508190555050565b60015481565b60006001541161031457600080fd5b60015481111561032357600080fd5b670de0b6b3a7640000810260026000828254039250508190555080600360003373ffffffffffffffffffffffffffffffffffffffff1673ffffffffffffffffffffffffffffffffffffffff168152602001908152602001600020600082825401925050819055506000809054906101000a900473ffffffffffffffffffffffffffffffffffffffff1673ffffffffffffffffffffffffffffffffffffffff167f69ca02dd4edd7bf0a4abb9ed3b7af3f14778db5d61921c7dc7cd545266326de2670de0b6b3a764000083026040518082815260200191505060405180910390a28060016000828254039250508190555050565b60025481565b6004602052806000526040600020600091509050806000018054600181600116156101000203166002900480601f0160208091040260200160405190810160405280929190818152602001828054600181600116156101000203166002900480156104c85780601f1061049d576101008083540402835291602001916104c8565b820191906000526020600020905b8154815290600101906020018083116104ab57829003601f168201915b5050505050908060010154905082565b6003602052806000526040600020600091509050548156fea265627a7a72315820930e3001d0886e2c57a5cc007c189bd32f8db24d3d47bd22828ca480cb178ad064736f6c634300050c0032",
  "source": "pragma solidity >=0.4.0 <=0.6.0;\r\n\r\n\r\ncontract Movies{\r\n\r\n    address owner;\r\n    uint public movies;\r\n    uint public balance;\r\n    uint constant price = 1 ether;\r\n    mapping(address => uint) public consumer;\r\n    mapping(uint => Cashier) public cashiers;\r\n    event Transfer(address indexed from, uint value);\r\n    \r\n    \r\n    struct Cashier {\r\n        bytes name;\r\n        uint badgeId;\r\n    }\r\n\r\n    constructor() public {\r\n        owner = msg.sender;\r\n        movies = 20;\r\n        balance = msg.sender.balance;\r\n    }\r\n    \r\n    \r\n\r\n\r\n    // validation pre-buying;\r\n    modifier preBuy() {\r\n        require(movies > 0);\r\n        _;\r\n    }\r\n    \r\n    \r\n        \r\n    //uint public value = msg.value;\r\n\r\n\r\n    function buyMovies(uint amount) public payable preBuy {\r\n       \r\n        if (amount > movies) {\r\n            revert();\r\n        }\r\n        \r\n        balance -= (amount * price);\r\n        consumer[msg.sender] += amount;\r\n        emit Transfer(owner,(amount * price));\r\n        movies -= amount;\r\n    }\r\n    \r\n    function refundMovies(uint amount) public {\r\n        if (consumer[msg.sender] < amount) {\r\n            revert();\r\n        }\r\n        balance += (amount * price);\r\n        consumer[msg.sender] -= amount;\r\n        movies += amount;\r\n    }\r\n}\r\n\r\n",
  "sourcePath": "C:/Users/k/Desktop/dirbtuves/TRUE-fella/contracts/Movies.sol",
  "compiler": {
    "name": "solc",
    "version": "0.5.12+commit.7709ece9.Emscripten.clang"
  },
  "schemaVersion": "3.0.19",
  "updatedAt": "2019-12-16T15:04:30.850Z",
  "networkType": "ethereum",
  "devdoc": {
    "methods": {}
  },
  "userdoc": {
    "methods": {}
  }
}