{
  "contractName": "temp2",
  "abi": [
    {
      "constant": true,
      "inputs": [],
      "name": "nice",
      "outputs": [
        {
          "internalType": "string",
          "name": "",
          "type": "string"
        }
      ],
      "payable": false,
      "stateMutability": "pure",
      "type": "function"
    },
    {
      "constant": true,
      "inputs": [],
      "name": "bad",
      "outputs": [
        {
          "internalType": "string",
          "name": "",
          "type": "string"
        }
      ],
      "payable": false,
      "stateMutability": "pure",
      "type": "function"
    }
  ],
  "bytecode": "0x608060405234801561001057600080fd5b506101f0806100206000396000f3fe608060405234801561001057600080fd5b50600436106100365760003560e01c806392cc410a1461003b5780639c3674fc146100be575b600080fd5b610043610141565b6040518080602001828103825283818151815260200191508051906020019080838360005b83811015610083578082015181840152602081019050610068565b50505050905090810190601f1680156100b05780820380516001836020036101000a031916815260200191505b509250505060405180910390f35b6100c661017e565b6040518080602001828103825283818151815260200191508051906020019080838360005b838110156101065780820151818401526020810190506100eb565b50505050905090810190601f1680156101335780820380516001836020036101000a031916815260200191505b509250505060405180910390f35b60606040518060400160405280601181526020017f4e69636520746f206d65657420796f7521000000000000000000000000000000815250905090565b60606040518060400160405280600881526020017f62616420796f752100000000000000000000000000000000000000000000000081525090509056fea265627a7a7231582061209fec722f1e8a1238cace36bba96cf5d1798b2b6e2982a73a95ede1cd02bb64736f6c634300050c0032",
  "source": "pragma solidity >=0.4.0 <=0.6.0;\r\ncontract temp2{\r\n    \r\n   \r\n\r\n    function nice() pure public returns(string memory){\r\n        \r\n        return \"Nice to meet you!\";\r\n    }\r\n\r\n    function bad() pure public returns(string memory){\r\n        \r\n        return \"bad you!\";\r\n    }\r\n    \r\n    \r\n}",
  "sourcePath": "C:/Users/k/desktop/dirbtuves/TRUE-fella/contracts/temp.sol",
  "compiler": {
    "name": "solc",
    "version": "0.5.12+commit.7709ece9.Emscripten.clang"
  },
  "schemaVersion": "3.0.19",
  "updatedAt": "2019-12-15T15:20:12.065Z",
  "devdoc": {
    "methods": {}
  },
  "userdoc": {
    "methods": {}
  }
}